:100000000C9434000C9451000C9451000C946F0328
:100010000C9451000C9451000C9451000C9451001C
:100020000C9451000C9451000C9451000C94F60067
:100030000C9451000C9451000C9451000C945100FC
:100040000C9449030C9451000C9451000C945100F1
:100050000C9451000C9451000C9451000C945100DC
:100060000C9451000C94510011241FBECFEFD8E026
:10007000DEBFCDBF11E0A0E0B1E0E2EBFCE002C0EA
:1000800005900D92A630B107D9F711E0A6E0B1E0D6
:1000900001C01D92A335B107E1F70E94AF030C9494
:1000A00057060C9400000F931F93CF93DF93DC014E
:1000B0008B01EA0180911001909111010097B1F03C
:1000C000E7E1F1E021E030E0422FB9018081918148
:1000D000009741F02F5F3F4F37962A303105A1F747
:1000E000842F01C0822F893021F417C060E070E0B6
:1000F00040E0CB01880F991F880F991F880F991F27
:10010000861B970BFC01E05FFE4FB183A083138336
:100110000283D583C4831682842FDF91CF911F91F0
:100120000F91089590E0FC01EE0FFF1FEE0FFF1FEF
:10013000EE0FFF1FE81BF90BE05FFE4F11821082EC
:100140001382128215821482168280E00895CF9263
:10015000DF92EF92FF921F93CF93DF93C6E1D1E03E
:100160000F2EFAEFEF2EFFEFFF2EF02DEC0EFD1EFF
:1001700010E08881882391F0D701ED91FC911197CF
:10018000309761F00995888181508883F7018481D7
:100190009581009719F4812F0E9492001F5F279686
:1001A00087E090E0E80EF91E193019F7DF91CF9142
:1001B0001F91FF90EF90DF90CF900895CF93C0E014
:1001C0008C2F0E949200CF5FC930D1F781E792E077
:1001D00090938900809388008CE08093810082E076
:1001E00080936F00CF910895789408951F920F9295
:1001F0000FB60F9211242F933F938F939F93AF933A
:10020000BF93CF93DF93EF93FF93E0E1F1E0DF0142
:1002100016969F01215C3F4F80819181009791F05C
:1002200082819381009759F48C918F5F8C938481A4
:100230009581009739F001979383828303C00197DA
:100240009383828337961796E217F30729F7FF9176
:10025000EF91DF91CF91BF91AF919F918F913F919E
:100260002F910F900FBE0F901F9018958091040151
:100270008130B1F5809152018530B9F48091060149
:10028000813071F560910701709108018091090139
:1002900090910A0120E030E040E251E40E94A7057D
:1002A0008823F4F00E9471010895813AC9F4809185
:1002B0000601882319F40E948201089560910701C4
:1002C000709108018091090190910A0120E030E0CD
:1002D00040E251E40E945D04882314F40E948201EC
:1002E00008958BB1847269F088E28BB98FEF9BE738
:1002F000A2E981509040A040E1F700C0000080E3F7
:100300008BB908958BB1807369F088E28BB98FEF58
:100310009BE7A2E981509040A040E1F700C00000B7
:1003200084E28BB90895EF92FF920F931F93CF93BE
:10033000DF9310920F0110920B0110920C0110929A
:100340000D0110920E0115B88FE39FE10197F1F7AF
:1003500000C000008FEF85B995E39A95F1F7000092
:1003600015B880910F018823E1F360910B01709122
:100370000C0180910D0190910E010E94F50420E086
:1003800034E244E75BE40E946104462F572F682F54
:10039000792FCB01BA0120E03AEE44E856E40E94FE
:1003A000AB05D62FC72FF82EE92E60910201709170
:1003B0000301882777FD8095982F0E94F7040D2F61
:1003C0001C2F2F2D3E2DA90198010E94A7058823DF
:1003D00024F085E08093520124C060910001709167
:1003E0000101882777FD8095982F0E94F7040D2F33
:1003F0001C2F2F2D3E2DA90198010E945D048823FA
:1004000024F481EA809352010CC08D2F9C2FAF2DD4
:10041000BE2DBC01CD010E940E060E94C90460934E
:100420005201DF91CF911F910F91FF90EF900895AE
:100430001092C50083E38093C4001092C00088E14D
:100440008093C10086E08093C2000895E0ECF0E064
:10045000908195FFFDCF8093C600089560910701BC
:10046000709108018091090190910A010E94C904CC
:10047000862F0E9426028FE99FE00197F1F700C0C6
:100480000000809106010E9426028FE99FE00197FB
:10049000F1F700C00000809152010E9426028FE90E
:1004A0009FE00197F1F700C000000895E0ECF0E054
:1004B00080818823ECF78091C60008958091C00068
:1004C000992787FD9095892F881F8827881F90E09E
:1004D000089510924F010E945E02009709F44CC0EB
:1004E0000E94560281E380934F018091040188238A
:1004F00029F481E0809304015D9A0BC0813031F4CE
:10050000109204018BB18C718BB903C081E0809390
:10051000040180910001909101018C3991052CF426
:1005200005969093010180930001809100019091C4
:100530000101893891052CF0059790930101809372
:1005400000018091020190910301843291052CF405
:100550000596909303018093020185E380934F01F8
:1005600080910201909103018A3091052CF005974A
:1005700090930301809302010895ECE7F0E08083FB
:1005800080818064808380818F7D8083EAE7F0E0D2
:10059000808187608083808180688083808180649F
:1005A0008083808186FDFDCF209178003091790095
:1005B000932F80E0820F911D089581E00E94BD027B
:1005C000873991051CF410920601089581E080930B
:1005D0000601089580E00E94BD029C01B9018827B0
:1005E00077FD8095982F0E94F70420E030E44CE9D5
:1005F00050E40E94AB0520E030E04AEF53E40E9453
:10060000F80320E030E040E251E40E946104462F0C
:10061000572F682F792FCB01BA010895EF92FF92DF
:100620000F931F93CF93DF93CAE0D0E010E000E078
:10063000FF24EE240E94EA029B01AC01812F902F3F
:10064000AF2DBE2DBC01CD010E94F903162F072F3F
:10065000F82EE92E219771F7862F902FAF2DBE2D02
:10066000BC01CD0120E030E040E251E40E94610491
:10067000DC01CB018093070190930801A09309014D
:10068000B0930A01DF91CF911F910F91FF90EF90EE
:1006900008951F920F920FB60F9211248F939F937C
:1006A000AF93BF9380910B0190910C01A0910D012C
:1006B000B0910E0181509F4FAF4FBF4F80930B0100
:1006C00090930C01A0930D01B0930E01BF91AF91D7
:1006D0009F918F910F900FBE0F901F9018951F92B2
:1006E0000F920FB60F9211242F938F939F93AF9376
:1006F000BF93EF93FF9383B1882349F085B5816061
:1007000085BDEEE6F0E08081816080831CC085B508
:100710008E7F85BD26B580910B0190910C01A09133
:100720000D01B0910E01820F911DA11DB11D80938D
:100730000B0190930C01A0930D01B0930E0116BC18
:1007400081E080930F01FF91EF91BF91AF919F9155
:100750008F912F910F900FBE0F901F9018958EEFD5
:1007600084B98FEF8AB984E28BB9E8E6F0E0808142
:1007700081608083EBE6F0E08081816080830E946D
:1007800018020E94DE008EE093E060E070E040EA34
:100790005FE00E9453008DED92E060E070E048EB76
:1007A0005BE00E94530083E991E060E070E042E387
:1007B00050E00E9453008EE292E060E070E04CE373
:1007C00050E00E94530089E692E060E070E041E072
:1007D00050E00E94530086E391E068EC70E048EE40
:1007E00053E00E9453000E94F4000E94A700FDCF36
:1007F0005058BB27AA270ED070C161D130F066D106
:1008000020F031F49F3F11F41EF456C10EF4E09530
:10081000E7FB4CC1E92F72D180F3BA176207730767
:100820008407950718F071F49EF58AC10EF4E095DF
:100830000B2EBA2FA02D0B01B90190010C01CA019A
:10084000A0011124FF27591B99F0593F50F4503E45
:1008500068F11A16F040A22F232F342F4427585F37
:10086000F3CF469537952795A795F0405395C9F74F
:100870007EF41F16BA0B620B730B840BBAF0915007
:10088000A1F0FF0FBB1F661F771F881FC2F70EC0A6
:10089000BA0F621F731F841F48F487957795679579
:1008A000B795F7959E3F08F0B3CF9395880F08F062
:1008B0009927EE0F979587950895D4D008F481E095
:1008C00008950CD00AC102D140F0F9D030F021F4E3
:1008D0005F3F19F0EBC0511134C1EEC00FD198F356
:1008E0009923C9F35523B1F3951B550BBB27AA27B1
:1008F00062177307840738F09F5F5F4F220F331F23
:10090000441FAA1FA9F333D00E2E3AF0E0E830D0EE
:1009100091505040E695001CCAF729D0FE2F27D0F1
:10092000660F771F881FBB1F261737074807AB07BF
:10093000B0E809F0BB0B802DBF01FF2793585F4F34
:100940002AF09E3F510568F0B1C0FBC05F3FECF359
:10095000983EDCF3869577956795B795F7959F5FF9
:10096000C9F7880F911D9695879597F90895E1E04D
:10097000660F771F881FBB1F621773078407BA07AC
:1009800020F0621B730B840BBA0BEE1F88F7E09507
:100990000895BCD088F09F5790F0B92F9927B75190
:1009A000A0F0D1F0660F771F881F991F1AF0BA9533
:1009B000C9F712C0B13081F0C3D0B1E00895C0C012
:1009C000672F782F8827B85F39F0B93FCCF3869529
:1009D00077956795B395D9F73EF490958095709586
:1009E00061957F4F8F4F9F4F0895E89409C097FB03
:1009F0003EF490958095709561957F4F8F4F9F4FF6
:100A00009923A9F0F92F96E9BB279395F695879539
:100A100077956795B795F111F8CFFAF4BB0F11F4FC
:100A200060FF1BC06F5F7F4F8F4F9F4F16C08823A3
:100A300011F096E911C0772321F09EE8872F762FD9
:100A400005C0662371F096E8862F70E060E02AF01A
:100A50009A95660F771F881FDAF7880F9695879506
:100A600097F90895990F0008550FAA0BE0E8FEEFDB
:100A700016161706E807F907C0F012161306E40762
:100A8000F50798F0621B730B840B950B39F40A265B
:100A900061F0232B242B252B21F408950A2609F439
:100AA000A140A6958FEF811D811D089597F99F673D
:100AB00080E870E060E008959FEF80EC08950024E6
:100AC0000A941616170618060906089500240A94B3
:100AD00012161306140605060895092E0394000C39
:100AE00011F4882352F0BB0F40F4BF2B11F460FFC8
:100AF00004C06F5F7F4F8F4F9F4F089557FD9058F1
:100B0000440F551F59F05F3F71F04795880F97FBD1
:100B1000991F61F09F3F79F087950895121613068B
:100B20001406551FF2CF4695F1DF08C016161706BA
:100B30001806991FF1CF86957105610508940895EF
:100B4000E894BB2766277727CB0197F908958ADFBA
:100B500008F48FEF08950BD0C0CFB1DF28F0B6DFD7
:100B600018F0952309F0A2CFA7CF1124EACFC6DF52
:100B7000A0F3959FD1F3950F50E0551F629FF001B0
:100B8000729FBB27F00DB11D639FAA27F00DB11D09
:100B9000AA1F649F6627B00DA11D661F829F222792
:100BA000B00DA11D621F739FB00DA11D621F839F19
:100BB000A00D611D221F749F3327A00D611D231FEF
:100BC000849F600D211D822F762F6A2F11249F573D
:100BD00050408AF0E1F088234AF0EE0FFF1FBB1F60
:100BE000661F771F881F91505040A9F79E3F5105FF
:100BF00070F05CCFA6CF5F3FECF3983EDCF38695B8
:100C000077956795B795F795E7959F5FC1F7FE2BA9
:100C1000880F911D9695879597F9089577DFE0F0F5
:100C20009E37D8F09639B8F49E3848F4672F782F5D
:100C30008827985FF9CF869577956795939595392D
:100C4000D0F3B62FB1706B0F711D811D20F4879505
:100C500077956795939502C01CC073CF882371F474
:100C6000772321F09850872B762F07C0662311F445
:100C700099270DC09051862B70E060E02AF09A957C
:100C8000660F771F881FDAF7880F9695879597F973
:100C900008959F3F31F0915020F48795779567959F
:100CA000B795880F911D9695879597F90895F894B3
:020CB000FFCF74
:060CB200A0000600010095
:00000001FF
