S010000043656E736F72656E2E73726563D7
S11300000C9434000C9451000C9451000C94510045
S11300100C9451000C9451000C9451000C94510018
S11300200C9451000C9451000C9451000C94F60063
S11300300C9451000C9451000C9451000C945100F8
S11300400C9451000C9451000C9451000C945100E8
S11300500C9451000C9451000C9451000C945100D8
S11300600C9451000C94510011241FBECFEFD8E022
S1130070DEBFCDBF11E0A0E0B1E0E0E4F7E002C0F4
S113008005900D92A030B107D9F711E0A0E0B1E0DE
S113009001C01D92A832B107E1F70E9495010C94AA
S11300A09E030C9400000F931F93CF93DF938C0156
S11300B0EB01DA0180910501909106010097B1F0FE
S11300C0ECE0F1E021E030E0422FB9018081918140
S11300D0009741F02F5F3F4F379626303105A1F747
S11300E0842F01C0822F853021F417C060E070E0B6
S11300F040E0CB01880F991F880F991F880F991F23
S1130100861B970BFC01EB5FFE4F11830083D383A7
S1130110C283B583A4831682842FDF91CF911F916C
S11301200F91089590E0FC01EE0FFF1FEE0FFF1FEB
S1130130EE0FFF1FE81BF90BEB5FFE4F11821082DD
S11301401382128215821482168280E00895CF925F
S1130150DF92EF92FF921F93CF93DF93CBE0D1E036
S11301600F2EFAEFEF2EFFEFFF2EF02DEC0EFD1EFB
S113017010E08881882391F0D701ED91FC911197CB
S1130180309761F00995888181508883F7018481D3
S11301909581009719F4812F0E9492001F5F279682
S11301A087E090E0E80EF91E153019F7DF91CF9142
S11301B01F91FF90EF90DF90CF900895CF93C0E010
S11301C08C2F0E949200CF5FC530D1F781E792E077
S11301D090938900809388008CE08093810082E072
S11301E080936F00CF910895789408951F920F9291
S11301F00FB60F9211242F933F938F939F93AF9336
S1130200BF93CF93DF93EF93FF93E5E0F1E0DF013A
S113021016969F012D5D3F4F80819181009791F04B
S113022082819381009759F48C918F5F8C938481A0
S11302309581009739F001979383828303C00197D6
S11302409383828337961796E217F30729F7FF9172
S1130250EF91DF91CF91BF91AF919F918F913F919A
S11302602F910F900FBE0F901F9018951092C500FC
S113027083E38093C4001092C00088E18093C1009E
S113028086E08093C2000895E0ECF0E0908195FF51
S1130290FDCF8093C6000895ECE7F0E08083808171
S11302A08064808380818F7D8083EAE7F0E08081B1
S11302B0876080838081806880838081806480837C
S11302C0808186FDFDCF2091780030917900932FB5
S11302D080E0820F911D089581E00E944C010E94EC
S11302E04401089580E00E944C019C01B9018827D3
S11302F077FD8095982F0E94AF0220E030E44CE90E
S113030050E40E943B0320E030E04AEF53E40E94B3
S1130310B40120E030E040E251E40E9419020E945E
S11303208102862F0E94440108958EEF84B98FEFD5
S11303308AB9E8E6F0E0808181608083EBE6F0E052
S11303408081816080830E9436010E94DE008CE6F9
S113035091E064E670E04CE251E00E9453000E9498
S1130360F4000E94A700FDCF5058BB27AA270ED047
S113037048C139D130F03ED120F031F49F3F11F41F
S11303801EF42EC10EF4E095E7FB24C1E92F4AD1F7
S113039080F3BA17620773078407950718F071F49E
S11303A09EF562C10EF4E0950B2EBA2FA02D0B0121
S11303B0B90190010C01CA01A0011124FF27591BA6
S11303C099F0593F50F4503E68F11A16F040A22FAC
S11303D0232F342F4427585FF3CF4695379527951D
S11303E0A795F0405395C9F77EF41F16BA0B620B1C
S11303F0730B840BBAF09150A1F0FF0FBB1F661F63
S1130400771F881FC2F70EC0BA0F621F731F841FA5
S113041048F4879577956795B795F7959E3F08F0CB
S1130420B3CF9395880F08F09927EE0F979587958A
S113043008950CD0E6C0DED040F0D5D030F021F4E1
S11304405F3F19F0C7C0511110C1CAC0EBD098F377
S11304509923C9F35523B1F3951B550BBB27AA2741
S113046062177307840738F09F5F5F4F220F331FB3
S1130470441FAA1FA9F333D00E2E3AF0E0E830D07F
S113048091505040E695001CCAF729D0FE2F27D082
S1130490660F771F881FBB1F261737074807AB0750
S11304A0B0E809F0BB0B802DBF01FF2793585F4FC5
S11304B02AF09E3F510568F08DC0D7C05F3FECF332
S11304C0983EDCF3869577956795B795F7959F5F8A
S11304D0C9F7880F911D9695879597F90895E1E0DE
S11304E0660F771F881FBB1F621773078407BA073D
S11304F020F0621B730B840BBA0BEE1F88F7E09598
S1130500089598D088F09F5790F0B92F9927B75144
S1130510A0F0D1F0660F771F881F991F1AF0BA95C3
S1130520C9F712C0B13081F09FD0B1E008959CC0EA
S1130530672F782F8827B85F39F0B93FCCF38695B9
S113054077956795B395D9F73EF490958095709516
S113055061957F4F8F4F9F4F0895E89409C097FB93
S11305603EF490958095709561957F4F8F4F9F4F86
S11305709923A9F0F92F96E9BB279395F6958795CA
S113058077956795B795F111F8CFFAF4BB0F11F48D
S113059060FF1BC06F5F7F4F8F4F9F4F16C0882334
S11305A011F096E911C0772321F09EE8872F762F6A
S11305B005C0662371F096E8862F70E060E02AF0AB
S11305C09A95660F771F881FDAF7880F9695879597
S11305D097F9089597F99F6780E870E060E00895BF
S11305E09FEF80EC089500240A9416161706180647
S11305F00906089500240A94121613061406050623
S11306000895092E0394000C11F4882352F0BB0FB3
S113061040F4BF2B11F460FF04C06F5F7F4F8F4F16
S11306209F4F089557FD9058440F551F59F05F3F51
S113063071F04795880F97FB991F61F09F3F79F000
S113064087950895121613061406551FF2CF469582
S1130650F1DF08C0161617061806991FF1CF869504
S11306607105610508940895E894BB2766277727E8
S1130670CB0197F908950BD0C4CFB5DF28F0BADFCA
S113068018F0952309F0A6CFABCF1124EECFCADF23
S1130690A0F3959FD1F3950F50E0551F629FF00191
S11306A0729FBB27F00DB11D639FAA27F00DB11DEA
S11306B0AA1F649F6627B00DA11D661F829F222773
S11306C0B00DA11D621F739FB00DA11D621F839FFA
S11306D0A00D611D221F749F3327A00D611D231FD0
S11306E0849F600D211D822F762F6A2F11249F571E
S11306F050408AF0E1F088234AF0EE0FFF1FBB1F41
S1130700661F771F881F91505040A9F79E3F5105DF
S113071070F060CFAACF5F3FECF3983EDCF3869590
S113072077956795B795F795E7959F5FC1F7FE2B8A
S1130730880F911D9695879597F90895F894FFCFA2
S9030000FC
