S010000043656E736F72656E2E73726563D7
S11300000C9434000C9451000C9451000C94F402A0
S11300100C9451000C9451000C9451000C94510018
S11300200C9451000C9451000C9451000C94F60063
S11300300C9451000C9451000C9451000C945100F8
S11300400C94CE020C9451000C9451000C94510069
S11300500C9451000C9451000C9451000C945100D8
S11300600C9451000C94510011241FBECFEFD8E022
S1130070DEBFCDBF11E0A0E0B1E0EAE1FBE002C0E9
S113008005900D92A030B107D9F711E0A0E0B1E0DE
S113009001C01D92A233B107E1F70E9434030C940E
S11300A08B050C9400000F931F93CF93DF938C0167
S11300B0EB01DA0180910A0190910B010097B1F0F4
S11300C0E1E1F1E021E030E0422FB901808191814A
S11300D0009741F02F5F3F4F379626303105A1F747
S11300E0842F01C0822F853021F417C060E070E0B6
S11300F040E0CB01880F991F880F991F880F991F23
S1130100861B970BFC01E65FFE4F11830083D383AC
S1130110C283B583A4831682842FDF91CF911F916C
S11301200F91089590E0FC01EE0FFF1FEE0FFF1FEB
S1130130EE0FFF1FE81BF90BE65FFE4F11821082E2
S11301401382128215821482168280E00895CF925F
S1130150DF92EF92FF921F93CF93DF93C0E1D1E040
S11301600F2EFAEFEF2EFFEFFF2EF02DEC0EFD1EFB
S113017010E08881882391F0D701ED91FC911197CB
S1130180309761F00995888181508883F7018481D3
S11301909581009719F4812F0E9492001F5F279682
S11301A087E090E0E80EF91E153019F7DF91CF9142
S11301B01F91FF90EF90DF90CF900895CF93C0E010
S11301C08C2F0E949200CF5FC530D1F781E792E077
S11301D090938900809388008CE08093810082E072
S11301E080936F00CF910895789408951F920F9291
S11301F00FB60F9211242F933F938F939F93AF9336
S1130200BF93CF93DF93EF93FF93EAE0F1E0DF0135
S113021016969F012D5D3F4F80819181009791F04B
S113022082819381009759F48C918F5F8C938481A0
S11302309581009739F001979383828303C00197D6
S11302409383828337961796E217F30729F7FF9172
S1130250EF91DF91CF91BF91AF919F918F913F919A
S11302602F910F900FBE0F901F9018950F931F930F
S1130270CF93DF93109209011092050110920601A9
S1130280109207011092080115B88FE39FE10197BE
S1130290F1F700C000008FEF85B995E39A95F1F767
S11302A0000015B8809109018823E1F360910501EC
S11302B07091060180910701909108010E947204D7
S11302C020E034E244E75BE40E94DE03462F572F2C
S11302D0682F792FCB01BA0120E03AEE44E856E4C6
S11302E00E942805062F172FD82FC92F862F912F4C
S11302F0AD2FBC2FBC01CD0120E030E040EC50E438
S11303000E94DA0318166CF080E090E0A0EAB0E4F2
S113031080932D0190932E01A0932F01B09330016F
S113032027C0802F912FAD2FBC2FBC01CD0120E021
S113033030E040E253E40E94240518166CF480E097
S113034090E0A1E2B3E480932D0190932E01A09359
S11303502F01B09330010CC0802F912FAD2FBC2FF3
S113036080932D0190932E01A0932F01B09330011F
S1130370DF91CF911F910F9108951092C50083E3EF
S11303808093C4001092C00088E18093C10086E08D
S11303908093C2000895E0ECF0E0908195FFFDCFDA
S11303A08093C600089560910101709102018091CB
S11303B00301909104010E944604862F0E94CB0100
S11303C08FE99FE00197F1F700C0000080910001E0
S11303D00E94CB018FE99FE00197F1F700C0000074
S11303E060912D0170912E0180912F019091300127
S11303F00E944604862F0E94CB018FE99FE001975B
S1130400F1F700C000000895E0ECF0E0808188235B
S1130410ECF78091C60008950E9404028093310194
S113042008958091C000992787FD9095892F881F92
S11304308827881F90E00895ECE7F0E080838081AE
S11304408064808380818F7D8083EAE7F0E080810F
S113045087608083808180688083808180648083DA
S1130460808186FDFDCF2091780030917900932F13
S113047080E0820F911D089581E00E941C0287395B
S113048091051CF410920001089581E0809300010D
S1130490089580E00E941C029C01B901882777FD21
S11304A08095982F0E94740420E030E44CE950E4D5
S11304B00E94280520E030E04AEF53E40E947503CF
S11304C020E030E040E251E40E94DE03462F572F43
S11304D0682F792FCB01BA010895EF92FF920F9301
S11304E01F93CF93DF93CAE0D0E010E000E0FF2435
S11304F0EE240E9449029B01AC01812F902FAF2D65
S1130500BE2DBC01CD010E947603162F072FF82EB5
S1130510E92E219771F7862F902FAF2DBE2DBC01A8
S1130520CD0120E030E040E251E40E94DE03DC0132
S1130530CB018093010190930201A0930301B09336
S11305400401DF91CF911F910F91FF90EF900895D7
S11305508BB182FF0FC08BB1880F8BB98FEF9BE7F4
S1130560A2E981509040A040E1F700C000008BB1A7
S1130570880F8BB908958BB184FF0FC08BB186951A
S11305808BB98FEF9BE7A2E981509040A040E1F73F
S113059000C000008BB186958BB908951F920F920D
S11305A00FB60F9211248F939F93AF93BF938091B3
S11305B0050190910601A0910701B09108018150B5
S11305C09F4FAF4FBF4F8093050190930601A093B7
S11305D00701B0930801BF91AF919F918F910F9044
S11305E00FBE0F901F9018951F920F920FB60F9287
S11305F011242F938F939F93AF93BF93EF93FF9304
S113060083B1882349F085B5816085BDEEE6F0E0CD
S11306108081816080831CC085B58E7F85BD26B5B1
S11306208091050190910601A0910701B091080104
S1130630820F911DA11DB11D8093050190930601A8
S1130640A0930701B093080116BC81E080930901CF
S1130650FF91EF91BF91AF919F918F912F910F9047
S11306600FBE0F901F9018958EEF84B98FEF8AB943
S113067084E08BB9E8E6F0E0808181608083EBE67A
S1130680F0E08081816080830E94BD010E94DE00D1
S11306908DE692E060E070E040EA5FE00E94530083
S11306A08CE392E060E070E048EB5BE00E94530072
S11306B086E391E060E070E044EF51E00E94530073
S11306C083ED91E064E670E044E650E00E9453005C
S11306D08CE092E060E070E044E650E00E94530059
S11306E00E94F4000E94A700FDCF5058BB27AA2700
S11306F00ED070C161D130F066D120F031F49F3F4B
S113070011F41EF456C10EF4E095E7FB4CC1E92F39
S113071072D180F3BA17620773078407950718F03C
S113072071F49EF58AC10EF4E0950B2EBA2FA02D1C
S11307300B01B90190010C01CA01A0011124FF278A
S1130740591B99F0593F50F4503E68F11A16F04085
S1130750A22F232F342F4427585FF3CF4695379584
S11307602795A795F0405395C9F77EF41F16BA0B49
S1130770620B730B840BBAF09150A1F0FF0FBB1FF7
S1130780661F771F881FC2F70EC0BA0F621F731F40
S1130790841F48F4879577956795B795F7959E3F9D
S11307A008F0B3CF9395880F08F09927EE0F97952B
S11307B087950895D4D008F481E008950CD00AC137
S11307C002D140F0F9D030F021F45F3F19F0EBC0D2
S11307D0511134C1EEC00FD198F39923C9F35523B5
S11307E0B1F3951B550BBB27AA2762177307840720
S11307F038F09F5F5F4F220F331F441FAA1FA9F3D6
S113080033D00E2E3AF0E0E830D091505040E695C7
S1130810001CCAF729D0FE2F27D0660F771F881F28
S1130820BB1F261737074807AB07B0E809F0BB0B17
S1130830802DBF01FF2793585F4F2AF09E3F51053B
S113084068F0B1C0FBC05F3FECF3983EDCF38695E3
S113085077956795B795F7959F5FC9F7880F911DB1
S11308609695879597F90895E1E0660F771F881F9D
S1130870BB1F621773078407BA0720F0621B730B50
S1130880840BBA0BEE1F88F7E0950895BCD088F06E
S11308909F5790F0B92F9927B751A0F0D1F0660F68
S11308A0771F881F991F1AF0BA95C9F712C0B13083
S11308B081F0C3D0B1E00895C0C0672F782F882796
S11308C0B85F39F0B93FCCF3869577956795B395C2
S11308D0D9F73EF490958095709561957F4F8F4F31
S11308E09F4F0895E89409C097FB3EF49095809536
S11308F0709561957F4F8F4F9F4F9923A9F0F92FE2
S113090096E9BB279395F695879577956795B7955F
S1130910F111F8CFFAF4BB0F11F460FF1BC06F5F45
S11309207F4F8F4F9F4F16C0882311F096E911C057
S1130930772321F09EE8872F762F05C0662371F078
S113094096E8862F70E060E02AF09A95660F771F8C
S1130950881FDAF7880F9695879597F90895990F68
S11309600008550FAA0BE0E8FEEF16161706E80775
S1130970F907C0F012161306E407F50798F0621B96
S1130980730B840B950B39F40A2661F0232B242B6B
S1130990252B21F408950A2609F4A140A6958FEF8A
S11309A0811D811D089597F99F6780E870E060E0DC
S11309B008959FEF80EC089500240A9416161706F4
S11309C018060906089500240A941216130614063C
S11309D005060895092E0394000C11F4882352F09F
S11309E0BB0F40F4BF2B11F460FF04C06F5F7F4F57
S11309F08F4F9F4F089557FD9058440F551F59F03E
S1130A005F3F71F04795880F97FB991F61F09F3FF7
S1130A1079F087950895121613061406551FF2CF20
S1130A204695F1DF08C0161617061806991FF1CF70
S1130A3086957105610508940895E894BB27662797
S1130A407727CB0197F908958ADF08F48FEF08958B
S1130A500BD0C0CFB1DF28F0B6DF18F0952309F032
S1130A60A2CFA7CF1124EACFC6DFA0F3959FD1F37D
S1130A70950F50E0551F629FF001729FBB27F00D48
S1130A80B11D639FAA27F00DB11DAA1F649F66279D
S1130A90B00DA11D661F829F2227B00DA11D621FEC
S1130AA0739FB00DA11D621F839FA00D611D221FA6
S1130AB0749F3327A00D611D231F849F600D211D8A
S1130AC0822F762F6A2F11249F5750408AF0E1F02D
S1130AD088234AF0EE0FFF1FBB1F661F771F881F76
S1130AE091505040A9F79E3F510570F05CCFA6CFBE
S1130AF05F3FECF3983EDCF3869577956795B79561
S1130B00F795E7959F5FC1F7FE2B880F911D96958A
S10D0B10879597F90895F894FFCF34
S9030000FC
